{
  "_format": "hh-sol-artifact-1",
  "contractName": "Marketplace",
  "sourceName": "contracts/Marketplace.sol",
  "abi": [
    {
      "inputs": [
        {
          "internalType": "address",
          "name": "pet",
          "type": "address"
        }
      ],
      "stateMutability": "nonpayable",
      "type": "constructor"
    },
    {
      "inputs": [],
      "name": "Marketplace__LowBalance",
      "type": "error"
    },
    {
      "inputs": [],
      "name": "Marketplace__NotEnoughBalance",
      "type": "error"
    },
    {
      "inputs": [],
      "name": "Marketplace__NotEnoughETHProvided",
      "type": "error"
    },
    {
      "inputs": [],
      "name": "Marketplace__TransferFailed",
      "type": "error"
    },
    {
      "anonymous": false,
      "inputs": [
        {
          "indexed": true,
          "internalType": "address",
          "name": "owner",
          "type": "address"
        },
        {
          "indexed": true,
          "internalType": "address",
          "name": "spender",
          "type": "address"
        },
        {
          "indexed": false,
          "internalType": "uint256",
          "name": "value",
          "type": "uint256"
        }
      ],
      "name": "Approval",
      "type": "event"
    },
    {
      "anonymous": false,
      "inputs": [
        {
          "indexed": true,
          "internalType": "address",
          "name": "from",
          "type": "address"
        },
        {
          "indexed": true,
          "internalType": "address",
          "name": "to",
          "type": "address"
        },
        {
          "indexed": false,
          "internalType": "uint256",
          "name": "value",
          "type": "uint256"
        }
      ],
      "name": "Transfer",
      "type": "event"
    },
    {
      "inputs": [
        {
          "internalType": "address",
          "name": "owner",
          "type": "address"
        },
        {
          "internalType": "address",
          "name": "spender",
          "type": "address"
        }
      ],
      "name": "allowance",
      "outputs": [
        {
          "internalType": "uint256",
          "name": "",
          "type": "uint256"
        }
      ],
      "stateMutability": "view",
      "type": "function"
    },
    {
      "inputs": [
        {
          "internalType": "address",
          "name": "spender",
          "type": "address"
        },
        {
          "internalType": "uint256",
          "name": "amount",
          "type": "uint256"
        }
      ],
      "name": "approve",
      "outputs": [
        {
          "internalType": "bool",
          "name": "",
          "type": "bool"
        }
      ],
      "stateMutability": "nonpayable",
      "type": "function"
    },
    {
      "inputs": [
        {
          "internalType": "address",
          "name": "account",
          "type": "address"
        }
      ],
      "name": "balanceOf",
      "outputs": [
        {
          "internalType": "uint256",
          "name": "",
          "type": "uint256"
        }
      ],
      "stateMutability": "view",
      "type": "function"
    },
    {
      "inputs": [],
      "name": "decimals",
      "outputs": [
        {
          "internalType": "uint8",
          "name": "",
          "type": "uint8"
        }
      ],
      "stateMutability": "view",
      "type": "function"
    },
    {
      "inputs": [
        {
          "internalType": "address",
          "name": "spender",
          "type": "address"
        },
        {
          "internalType": "uint256",
          "name": "subtractedValue",
          "type": "uint256"
        }
      ],
      "name": "decreaseAllowance",
      "outputs": [
        {
          "internalType": "bool",
          "name": "",
          "type": "bool"
        }
      ],
      "stateMutability": "nonpayable",
      "type": "function"
    },
    {
      "inputs": [
        {
          "internalType": "uint256",
          "name": "tokenId",
          "type": "uint256"
        }
      ],
      "name": "feedPet",
      "outputs": [],
      "stateMutability": "nonpayable",
      "type": "function"
    },
    {
      "inputs": [],
      "name": "i_foodToETHPercent",
      "outputs": [
        {
          "internalType": "uint256",
          "name": "",
          "type": "uint256"
        }
      ],
      "stateMutability": "view",
      "type": "function"
    },
    {
      "inputs": [],
      "name": "i_tokensToFeedPet",
      "outputs": [
        {
          "internalType": "uint256",
          "name": "",
          "type": "uint256"
        }
      ],
      "stateMutability": "view",
      "type": "function"
    },
    {
      "inputs": [
        {
          "internalType": "address",
          "name": "spender",
          "type": "address"
        },
        {
          "internalType": "uint256",
          "name": "addedValue",
          "type": "uint256"
        }
      ],
      "name": "increaseAllowance",
      "outputs": [
        {
          "internalType": "bool",
          "name": "",
          "type": "bool"
        }
      ],
      "stateMutability": "nonpayable",
      "type": "function"
    },
    {
      "inputs": [
        {
          "internalType": "uint256",
          "name": "amount",
          "type": "uint256"
        }
      ],
      "name": "mintFood",
      "outputs": [],
      "stateMutability": "nonpayable",
      "type": "function"
    },
    {
      "inputs": [],
      "name": "name",
      "outputs": [
        {
          "internalType": "string",
          "name": "",
          "type": "string"
        }
      ],
      "stateMutability": "view",
      "type": "function"
    },
    {
      "inputs": [
        {
          "internalType": "uint256",
          "name": "amount",
          "type": "uint256"
        }
      ],
      "name": "purchaseFood",
      "outputs": [],
      "stateMutability": "payable",
      "type": "function"
    },
    {
      "inputs": [],
      "name": "s_pet",
      "outputs": [
        {
          "internalType": "contract IPet",
          "name": "",
          "type": "address"
        }
      ],
      "stateMutability": "view",
      "type": "function"
    },
    {
      "inputs": [
        {
          "internalType": "address",
          "name": "",
          "type": "address"
        }
      ],
      "name": "s_users",
      "outputs": [
        {
          "internalType": "uint256",
          "name": "",
          "type": "uint256"
        }
      ],
      "stateMutability": "view",
      "type": "function"
    },
    {
      "inputs": [],
      "name": "symbol",
      "outputs": [
        {
          "internalType": "string",
          "name": "",
          "type": "string"
        }
      ],
      "stateMutability": "view",
      "type": "function"
    },
    {
      "inputs": [],
      "name": "totalSupply",
      "outputs": [
        {
          "internalType": "uint256",
          "name": "",
          "type": "uint256"
        }
      ],
      "stateMutability": "view",
      "type": "function"
    },
    {
      "inputs": [
        {
          "internalType": "address",
          "name": "to",
          "type": "address"
        },
        {
          "internalType": "uint256",
          "name": "amount",
          "type": "uint256"
        }
      ],
      "name": "transfer",
      "outputs": [
        {
          "internalType": "bool",
          "name": "",
          "type": "bool"
        }
      ],
      "stateMutability": "nonpayable",
      "type": "function"
    },
    {
      "inputs": [
        {
          "internalType": "address",
          "name": "from",
          "type": "address"
        },
        {
          "internalType": "address",
          "name": "to",
          "type": "address"
        },
        {
          "internalType": "uint256",
          "name": "amount",
          "type": "uint256"
        }
      ],
      "name": "transferFrom",
      "outputs": [
        {
          "internalType": "bool",
          "name": "",
          "type": "bool"
        }
      ],
      "stateMutability": "nonpayable",
      "type": "function"
    }
  ],
  "bytecode": "0x60806040523480156200001157600080fd5b5060405162002097380380620020978339818101604052810190620000379190620001e6565b6040518060400160405280600a81526020017f466f6f6420546f6b656e000000000000000000000000000000000000000000008152506040518060400160405280600381526020017f46544e00000000000000000000000000000000000000000000000000000000008152508160039080519060200190620000bb9291906200011f565b508060049080519060200190620000d49291906200011f565b50505080600660006101000a81548173ffffffffffffffffffffffffffffffffffffffff021916908373ffffffffffffffffffffffffffffffffffffffff16021790555050620002d0565b8280546200012d906200024c565b90600052602060002090601f0160209004810192826200015157600085556200019d565b82601f106200016c57805160ff19168380011785556200019d565b828001600101855582156200019d579182015b828111156200019c5782518255916020019190600101906200017f565b5b509050620001ac9190620001b0565b5090565b5b80821115620001cb576000816000905550600101620001b1565b5090565b600081519050620001e081620002b6565b92915050565b600060208284031215620001ff57620001fe620002b1565b5b60006200020f84828501620001cf565b91505092915050565b600062000225826200022c565b9050919050565b600073ffffffffffffffffffffffffffffffffffffffff82169050919050565b600060028204905060018216806200026557607f821691505b602082108114156200027c576200027b62000282565b5b50919050565b7f4e487b7100000000000000000000000000000000000000000000000000000000600052602260045260246000fd5b600080fd5b620002c18162000218565b8114620002cd57600080fd5b50565b611db780620002e06000396000f3fe6080604052600436106101095760003560e01c8063a457c2d711610095578063b8cb0a1d11610064578063b8cb0a1d14610398578063dd62ed3e146103d5578063ed947cc714610412578063f9e076571461043d578063fbfabac41461046857610109565b8063a457c2d7146102d9578063a9059cbb14610316578063aa2f6c3014610353578063b08f258b1461037c57610109565b8063313ce567116100dc578063313ce567146101de57806339509351146102095780634e5834221461024657806370a082311461027157806395d89b41146102ae57610109565b806306fdde031461010e578063095ea7b31461013957806318160ddd1461017657806323b872dd146101a1575b600080fd5b34801561011a57600080fd5b50610123610491565b6040516101309190611616565b60405180910390f35b34801561014557600080fd5b50610160600480360381019061015b9190611373565b610523565b60405161016d91906115e0565b60405180910390f35b34801561018257600080fd5b5061018b610546565b6040516101989190611778565b60405180910390f35b3480156101ad57600080fd5b506101c860048036038101906101c39190611320565b610550565b6040516101d591906115e0565b60405180910390f35b3480156101ea57600080fd5b506101f361057f565b6040516102009190611793565b60405180910390f35b34801561021557600080fd5b50610230600480360381019061022b9190611373565b610588565b60405161023d91906115e0565b60405180910390f35b34801561025257600080fd5b5061025b6105bf565b6040516102689190611778565b60405180910390f35b34801561027d57600080fd5b50610298600480360381019061029391906112b3565b6105c4565b6040516102a59190611778565b60405180910390f35b3480156102ba57600080fd5b506102c361060c565b6040516102d09190611616565b60405180910390f35b3480156102e557600080fd5b5061030060048036038101906102fb9190611373565b61069e565b60405161030d91906115e0565b60405180910390f35b34801561032257600080fd5b5061033d60048036038101906103389190611373565b610715565b60405161034a91906115e0565b60405180910390f35b34801561035f57600080fd5b5061037a600480360381019061037591906113e0565b610738565b005b610396600480360381019061039191906113e0565b610745565b005b3480156103a457600080fd5b506103bf60048036038101906103ba91906112b3565b61087f565b6040516103cc9190611778565b60405180910390f35b3480156103e157600080fd5b506103fc60048036038101906103f791906112e0565b610897565b6040516104099190611778565b60405180910390f35b34801561041e57600080fd5b5061042761091e565b60405161043491906115fb565b60405180910390f35b34801561044957600080fd5b50610452610944565b60405161045f9190611778565b60405180910390f35b34801561047457600080fd5b5061048f600480360381019061048a91906113e0565b610949565b005b6060600380546104a09061199d565b80601f01602080910402602001604051908101604052809291908181526020018280546104cc9061199d565b80156105195780601f106104ee57610100808354040283529160200191610519565b820191906000526020600020905b8154815290600101906020018083116104fc57829003601f168201915b5050505050905090565b60008061052e610a53565b905061053b818585610a5b565b600191505092915050565b6000600254905090565b60008061055b610a53565b9050610568858285610c26565b610573858585610cb2565b60019150509392505050565b60006012905090565b600080610593610a53565b90506105b48185856105a58589610897565b6105af91906117ca565b610a5b565b600191505092915050565b600581565b60008060008373ffffffffffffffffffffffffffffffffffffffff1673ffffffffffffffffffffffffffffffffffffffff168152602001908152602001600020549050919050565b60606004805461061b9061199d565b80601f01602080910402602001604051908101604052809291908181526020018280546106479061199d565b80156106945780601f1061066957610100808354040283529160200191610694565b820191906000526020600020905b81548152906001019060200180831161067757829003601f168201915b5050505050905090565b6000806106a9610a53565b905060006106b78286610897565b9050838110156106fc576040517f08c379a00000000000000000000000000000000000000000000000000000000081526004016106f390611738565b60405180910390fd5b6107098286868403610a5b565b60019250505092915050565b600080610720610a53565b905061072d818585610cb2565b600191505092915050565b6107423082610f33565b50565b6000606460016107559190611820565b826107609190611851565b905061076b306105c4565b8211156107a4576040517f45c17c3800000000000000000000000000000000000000000000000000000000815260040160405180910390fd5b348111156107de576040517fb5a8049700000000000000000000000000000000000000000000000000000000815260040160405180910390fd5b81600560003373ffffffffffffffffffffffffffffffffffffffff1673ffffffffffffffffffffffffffffffffffffffff168152602001908152602001600020600082825461082d91906117ca565b925050819055506000610841303385610550565b90508061087a576040517f3a06d36900000000000000000000000000000000000000000000000000000000815260040160405180910390fd5b505050565b60056020528060005260406000206000915090505481565b6000600160008473ffffffffffffffffffffffffffffffffffffffff1673ffffffffffffffffffffffffffffffffffffffff16815260200190815260200160002060008373ffffffffffffffffffffffffffffffffffffffff1673ffffffffffffffffffffffffffffffffffffffff16815260200190815260200160002054905092915050565b600660009054906101000a900473ffffffffffffffffffffffffffffffffffffffff1681565b600181565b6005610954336105c4565b101561098c576040517f6861781a00000000000000000000000000000000000000000000000000000000815260040160405180910390fd5b6000600660009054906101000a900473ffffffffffffffffffffffffffffffffffffffff1673ffffffffffffffffffffffffffffffffffffffff16630db8f857836040518263ffffffff1660e01b81526004016109e99190611778565b602060405180830381600087803b158015610a0357600080fd5b505af1158015610a17573d6000803e3d6000fd5b505050506040513d601f19601f82011682018060405250810190610a3b91906113b3565b90508015610a4f57610a4e336005611093565b5b5050565b600033905090565b600073ffffffffffffffffffffffffffffffffffffffff168373ffffffffffffffffffffffffffffffffffffffff161415610acb576040517f08c379a0000000000000000000000000000000000000000000000000000000008152600401610ac290611718565b60405180910390fd5b600073ffffffffffffffffffffffffffffffffffffffff168273ffffffffffffffffffffffffffffffffffffffff161415610b3b576040517f08c379a0000000000000000000000000000000000000000000000000000000008152600401610b3290611678565b60405180910390fd5b80600160008573ffffffffffffffffffffffffffffffffffffffff1673ffffffffffffffffffffffffffffffffffffffff16815260200190815260200160002060008473ffffffffffffffffffffffffffffffffffffffff1673ffffffffffffffffffffffffffffffffffffffff168152602001908152602001600020819055508173ffffffffffffffffffffffffffffffffffffffff168373ffffffffffffffffffffffffffffffffffffffff167f8c5be1e5ebec7d5bd14f71427d1e84f3dd0314c0f7b2291e5b200ac8c7c3b92583604051610c199190611778565b60405180910390a3505050565b6000610c328484610897565b90507fffffffffffffffffffffffffffffffffffffffffffffffffffffffffffffffff8114610cac5781811015610c9e576040517f08c379a0000000000000000000000000000000000000000000000000000000008152600401610c9590611698565b60405180910390fd5b610cab8484848403610a5b565b5b50505050565b600073ffffffffffffffffffffffffffffffffffffffff168373ffffffffffffffffffffffffffffffffffffffff161415610d22576040517f08c379a0000000000000000000000000000000000000000000000000000000008152600401610d19906116f8565b60405180910390fd5b600073ffffffffffffffffffffffffffffffffffffffff168273ffffffffffffffffffffffffffffffffffffffff161415610d92576040517f08c379a0000000000000000000000000000000000000000000000000000000008152600401610d8990611638565b60405180910390fd5b610d9d83838361126a565b60008060008573ffffffffffffffffffffffffffffffffffffffff1673ffffffffffffffffffffffffffffffffffffffff16815260200190815260200160002054905081811015610e23576040517f08c379a0000000000000000000000000000000000000000000000000000000008152600401610e1a906116b8565b60405180910390fd5b8181036000808673ffffffffffffffffffffffffffffffffffffffff1673ffffffffffffffffffffffffffffffffffffffff16815260200190815260200160002081905550816000808573ffffffffffffffffffffffffffffffffffffffff1673ffffffffffffffffffffffffffffffffffffffff1681526020019081526020016000206000828254610eb691906117ca565b925050819055508273ffffffffffffffffffffffffffffffffffffffff168473ffffffffffffffffffffffffffffffffffffffff167fddf252ad1be2c89b69c2b068fc378daa952ba7f163c4a11628f55a4df523b3ef84604051610f1a9190611778565b60405180910390a3610f2d84848461126f565b50505050565b600073ffffffffffffffffffffffffffffffffffffffff168273ffffffffffffffffffffffffffffffffffffffff161415610fa3576040517f08c379a0000000000000000000000000000000000000000000000000000000008152600401610f9a90611758565b60405180910390fd5b610faf6000838361126a565b8060026000828254610fc191906117ca565b92505081905550806000808473ffffffffffffffffffffffffffffffffffffffff1673ffffffffffffffffffffffffffffffffffffffff168152602001908152602001600020600082825461101691906117ca565b925050819055508173ffffffffffffffffffffffffffffffffffffffff16600073ffffffffffffffffffffffffffffffffffffffff167fddf252ad1be2c89b69c2b068fc378daa952ba7f163c4a11628f55a4df523b3ef8360405161107b9190611778565b60405180910390a361108f6000838361126f565b5050565b600073ffffffffffffffffffffffffffffffffffffffff168273ffffffffffffffffffffffffffffffffffffffff161415611103576040517f08c379a00000000000000000000000000000000000000000000000000000000081526004016110fa906116d8565b60405180910390fd5b61110f8260008361126a565b60008060008473ffffffffffffffffffffffffffffffffffffffff1673ffffffffffffffffffffffffffffffffffffffff16815260200190815260200160002054905081811015611195576040517f08c379a000000000000000000000000000000000000000000000000000000000815260040161118c90611658565b60405180910390fd5b8181036000808573ffffffffffffffffffffffffffffffffffffffff1673ffffffffffffffffffffffffffffffffffffffff1681526020019081526020016000208190555081600260008282546111ec91906118ab565b92505081905550600073ffffffffffffffffffffffffffffffffffffffff168373ffffffffffffffffffffffffffffffffffffffff167fddf252ad1be2c89b69c2b068fc378daa952ba7f163c4a11628f55a4df523b3ef846040516112519190611778565b60405180910390a36112658360008461126f565b505050565b505050565b505050565b60008135905061128381611d3c565b92915050565b60008151905061129881611d53565b92915050565b6000813590506112ad81611d6a565b92915050565b6000602082840312156112c9576112c8611a5c565b5b60006112d784828501611274565b91505092915050565b600080604083850312156112f7576112f6611a5c565b5b600061130585828601611274565b925050602061131685828601611274565b9150509250929050565b60008060006060848603121561133957611338611a5c565b5b600061134786828701611274565b935050602061135886828701611274565b92505060406113698682870161129e565b9150509250925092565b6000806040838503121561138a57611389611a5c565b5b600061139885828601611274565b92505060206113a98582860161129e565b9150509250929050565b6000602082840312156113c9576113c8611a5c565b5b60006113d784828501611289565b91505092915050565b6000602082840312156113f6576113f5611a5c565b5b60006114048482850161129e565b91505092915050565b611416816118f1565b82525050565b61142581611934565b82525050565b6000611436826117ae565b61144081856117b9565b935061145081856020860161196a565b61145981611a61565b840191505092915050565b60006114716023836117b9565b915061147c82611a72565b604082019050919050565b60006114946022836117b9565b915061149f82611ac1565b604082019050919050565b60006114b76022836117b9565b91506114c282611b10565b604082019050919050565b60006114da601d836117b9565b91506114e582611b5f565b602082019050919050565b60006114fd6026836117b9565b915061150882611b88565b604082019050919050565b60006115206021836117b9565b915061152b82611bd7565b604082019050919050565b60006115436025836117b9565b915061154e82611c26565b604082019050919050565b60006115666024836117b9565b915061157182611c75565b604082019050919050565b60006115896025836117b9565b915061159482611cc4565b604082019050919050565b60006115ac601f836117b9565b91506115b782611d13565b602082019050919050565b6115cb8161191d565b82525050565b6115da81611927565b82525050565b60006020820190506115f5600083018461140d565b92915050565b6000602082019050611610600083018461141c565b92915050565b60006020820190508181036000830152611630818461142b565b905092915050565b6000602082019050818103600083015261165181611464565b9050919050565b6000602082019050818103600083015261167181611487565b9050919050565b60006020820190508181036000830152611691816114aa565b9050919050565b600060208201905081810360008301526116b1816114cd565b9050919050565b600060208201905081810360008301526116d1816114f0565b9050919050565b600060208201905081810360008301526116f181611513565b9050919050565b6000602082019050818103600083015261171181611536565b9050919050565b6000602082019050818103600083015261173181611559565b9050919050565b600060208201905081810360008301526117518161157c565b9050919050565b600060208201905081810360008301526117718161159f565b9050919050565b600060208201905061178d60008301846115c2565b92915050565b60006020820190506117a860008301846115d1565b92915050565b600081519050919050565b600082825260208201905092915050565b60006117d58261191d565b91506117e08361191d565b9250827fffffffffffffffffffffffffffffffffffffffffffffffffffffffffffffffff03821115611815576118146119cf565b5b828201905092915050565b600061182b8261191d565b91506118368361191d565b925082611846576118456119fe565b5b828204905092915050565b600061185c8261191d565b91506118678361191d565b9250817fffffffffffffffffffffffffffffffffffffffffffffffffffffffffffffffff04831182151516156118a05761189f6119cf565b5b828202905092915050565b60006118b68261191d565b91506118c18361191d565b9250828210156118d4576118d36119cf565b5b828203905092915050565b60006118ea826118fd565b9050919050565b60008115159050919050565b600073ffffffffffffffffffffffffffffffffffffffff82169050919050565b6000819050919050565b600060ff82169050919050565b600061193f82611946565b9050919050565b600061195182611958565b9050919050565b6000611963826118fd565b9050919050565b60005b8381101561198857808201518184015260208101905061196d565b83811115611997576000848401525b50505050565b600060028204905060018216806119b557607f821691505b602082108114156119c9576119c8611a2d565b5b50919050565b7f4e487b7100000000000000000000000000000000000000000000000000000000600052601160045260246000fd5b7f4e487b7100000000000000000000000000000000000000000000000000000000600052601260045260246000fd5b7f4e487b7100000000000000000000000000000000000000000000000000000000600052602260045260246000fd5b600080fd5b6000601f19601f8301169050919050565b7f45524332303a207472616e7366657220746f20746865207a65726f206164647260008201527f6573730000000000000000000000000000000000000000000000000000000000602082015250565b7f45524332303a206275726e20616d6f756e7420657863656564732062616c616e60008201527f6365000000000000000000000000000000000000000000000000000000000000602082015250565b7f45524332303a20617070726f766520746f20746865207a65726f20616464726560008201527f7373000000000000000000000000000000000000000000000000000000000000602082015250565b7f45524332303a20696e73756666696369656e7420616c6c6f77616e6365000000600082015250565b7f45524332303a207472616e7366657220616d6f756e742065786365656473206260008201527f616c616e63650000000000000000000000000000000000000000000000000000602082015250565b7f45524332303a206275726e2066726f6d20746865207a65726f2061646472657360008201527f7300000000000000000000000000000000000000000000000000000000000000602082015250565b7f45524332303a207472616e736665722066726f6d20746865207a65726f20616460008201527f6472657373000000000000000000000000000000000000000000000000000000602082015250565b7f45524332303a20617070726f76652066726f6d20746865207a65726f2061646460008201527f7265737300000000000000000000000000000000000000000000000000000000602082015250565b7f45524332303a2064656372656173656420616c6c6f77616e63652062656c6f7760008201527f207a65726f000000000000000000000000000000000000000000000000000000602082015250565b7f45524332303a206d696e7420746f20746865207a65726f206164647265737300600082015250565b611d45816118df565b8114611d5057600080fd5b50565b611d5c816118f1565b8114611d6757600080fd5b50565b611d738161191d565b8114611d7e57600080fd5b5056fea2646970667358221220a5392b1c88113a6465d3e14579164bd0f735d09e43512e3e9cff9443621b653d64736f6c63430008070033",
  "linkReferences": {},
  "deployedLinkReferences": {}
}