{
  "_format": "hh-sol-artifact-1",
  "contractName": "Pet",
  "sourceName": "contracts/Pet.sol",
  "abi": [
    {
      "inputs": [],
      "stateMutability": "nonpayable",
      "type": "constructor"
    },
    {
      "inputs": [],
      "name": "Pet__PetStarves",
      "type": "error"
    },
    {
      "anonymous": false,
      "inputs": [
        {
          "indexed": true,
          "internalType": "address",
          "name": "owner",
          "type": "address"
        },
        {
          "indexed": true,
          "internalType": "address",
          "name": "approved",
          "type": "address"
        },
        {
          "indexed": true,
          "internalType": "uint256",
          "name": "tokenId",
          "type": "uint256"
        }
      ],
      "name": "Approval",
      "type": "event"
    },
    {
      "anonymous": false,
      "inputs": [
        {
          "indexed": true,
          "internalType": "address",
          "name": "owner",
          "type": "address"
        },
        {
          "indexed": true,
          "internalType": "address",
          "name": "operator",
          "type": "address"
        },
        {
          "indexed": false,
          "internalType": "bool",
          "name": "approved",
          "type": "bool"
        }
      ],
      "name": "ApprovalForAll",
      "type": "event"
    },
    {
      "anonymous": false,
      "inputs": [
        {
          "indexed": true,
          "internalType": "uint256",
          "name": "tokenId",
          "type": "uint256"
        },
        {
          "indexed": false,
          "internalType": "uint256",
          "name": "createdAt",
          "type": "uint256"
        }
      ],
      "name": "NFTMinted",
      "type": "event"
    },
    {
      "anonymous": false,
      "inputs": [
        {
          "indexed": true,
          "internalType": "address",
          "name": "from",
          "type": "address"
        },
        {
          "indexed": true,
          "internalType": "address",
          "name": "to",
          "type": "address"
        },
        {
          "indexed": true,
          "internalType": "uint256",
          "name": "tokenId",
          "type": "uint256"
        }
      ],
      "name": "Transfer",
      "type": "event"
    },
    {
      "inputs": [
        {
          "internalType": "uint256",
          "name": "tokenId",
          "type": "uint256"
        }
      ],
      "name": "_feedPet",
      "outputs": [
        {
          "internalType": "bool",
          "name": "",
          "type": "bool"
        }
      ],
      "stateMutability": "nonpayable",
      "type": "function"
    },
    {
      "inputs": [
        {
          "internalType": "address",
          "name": "to",
          "type": "address"
        },
        {
          "internalType": "uint256",
          "name": "tokenId",
          "type": "uint256"
        }
      ],
      "name": "approve",
      "outputs": [],
      "stateMutability": "nonpayable",
      "type": "function"
    },
    {
      "inputs": [
        {
          "internalType": "address",
          "name": "owner",
          "type": "address"
        }
      ],
      "name": "balanceOf",
      "outputs": [
        {
          "internalType": "uint256",
          "name": "",
          "type": "uint256"
        }
      ],
      "stateMutability": "view",
      "type": "function"
    },
    {
      "inputs": [
        {
          "internalType": "uint256",
          "name": "tokenId",
          "type": "uint256"
        }
      ],
      "name": "getApproved",
      "outputs": [
        {
          "internalType": "address",
          "name": "",
          "type": "address"
        }
      ],
      "stateMutability": "view",
      "type": "function"
    },
    {
      "inputs": [
        {
          "internalType": "address",
          "name": "owner",
          "type": "address"
        },
        {
          "internalType": "address",
          "name": "operator",
          "type": "address"
        }
      ],
      "name": "isApprovedForAll",
      "outputs": [
        {
          "internalType": "bool",
          "name": "",
          "type": "bool"
        }
      ],
      "stateMutability": "view",
      "type": "function"
    },
    {
      "inputs": [
        {
          "internalType": "string",
          "name": "tokenURI",
          "type": "string"
        }
      ],
      "name": "mint",
      "outputs": [
        {
          "internalType": "uint256",
          "name": "",
          "type": "uint256"
        }
      ],
      "stateMutability": "nonpayable",
      "type": "function"
    },
    {
      "inputs": [],
      "name": "name",
      "outputs": [
        {
          "internalType": "string",
          "name": "",
          "type": "string"
        }
      ],
      "stateMutability": "view",
      "type": "function"
    },
    {
      "inputs": [
        {
          "internalType": "uint256",
          "name": "tokenId",
          "type": "uint256"
        }
      ],
      "name": "ownerOf",
      "outputs": [
        {
          "internalType": "address",
          "name": "",
          "type": "address"
        }
      ],
      "stateMutability": "view",
      "type": "function"
    },
    {
      "inputs": [],
      "name": "s_lastTimestamp",
      "outputs": [
        {
          "internalType": "uint256",
          "name": "",
          "type": "uint256"
        }
      ],
      "stateMutability": "view",
      "type": "function"
    },
    {
      "inputs": [
        {
          "internalType": "uint256",
          "name": "",
          "type": "uint256"
        }
      ],
      "name": "s_petItems",
      "outputs": [
        {
          "internalType": "uint256",
          "name": "tokenId",
          "type": "uint256"
        },
        {
          "internalType": "bool",
          "name": "isPetFed",
          "type": "bool"
        },
        {
          "internalType": "uint256",
          "name": "lastUptatedAt",
          "type": "uint256"
        }
      ],
      "stateMutability": "view",
      "type": "function"
    },
    {
      "inputs": [],
      "name": "s_time",
      "outputs": [
        {
          "internalType": "uint256",
          "name": "",
          "type": "uint256"
        }
      ],
      "stateMutability": "view",
      "type": "function"
    },
    {
      "inputs": [],
      "name": "s_tokenId",
      "outputs": [
        {
          "internalType": "uint256",
          "name": "",
          "type": "uint256"
        }
      ],
      "stateMutability": "view",
      "type": "function"
    },
    {
      "inputs": [
        {
          "internalType": "address",
          "name": "from",
          "type": "address"
        },
        {
          "internalType": "address",
          "name": "to",
          "type": "address"
        },
        {
          "internalType": "uint256",
          "name": "tokenId",
          "type": "uint256"
        }
      ],
      "name": "safeTransferFrom",
      "outputs": [],
      "stateMutability": "nonpayable",
      "type": "function"
    },
    {
      "inputs": [
        {
          "internalType": "address",
          "name": "from",
          "type": "address"
        },
        {
          "internalType": "address",
          "name": "to",
          "type": "address"
        },
        {
          "internalType": "uint256",
          "name": "tokenId",
          "type": "uint256"
        },
        {
          "internalType": "bytes",
          "name": "_data",
          "type": "bytes"
        }
      ],
      "name": "safeTransferFrom",
      "outputs": [],
      "stateMutability": "nonpayable",
      "type": "function"
    },
    {
      "inputs": [
        {
          "internalType": "address",
          "name": "operator",
          "type": "address"
        },
        {
          "internalType": "bool",
          "name": "approved",
          "type": "bool"
        }
      ],
      "name": "setApprovalForAll",
      "outputs": [],
      "stateMutability": "nonpayable",
      "type": "function"
    },
    {
      "inputs": [
        {
          "internalType": "bytes4",
          "name": "interfaceId",
          "type": "bytes4"
        }
      ],
      "name": "supportsInterface",
      "outputs": [
        {
          "internalType": "bool",
          "name": "",
          "type": "bool"
        }
      ],
      "stateMutability": "view",
      "type": "function"
    },
    {
      "inputs": [],
      "name": "symbol",
      "outputs": [
        {
          "internalType": "string",
          "name": "",
          "type": "string"
        }
      ],
      "stateMutability": "view",
      "type": "function"
    },
    {
      "inputs": [
        {
          "internalType": "uint256",
          "name": "tokenId",
          "type": "uint256"
        }
      ],
      "name": "tokenURI",
      "outputs": [
        {
          "internalType": "string",
          "name": "",
          "type": "string"
        }
      ],
      "stateMutability": "view",
      "type": "function"
    },
    {
      "inputs": [
        {
          "internalType": "address",
          "name": "from",
          "type": "address"
        },
        {
          "internalType": "address",
          "name": "to",
          "type": "address"
        },
        {
          "internalType": "uint256",
          "name": "tokenId",
          "type": "uint256"
        }
      ],
      "name": "transferFrom",
      "outputs": [],
      "stateMutability": "nonpayable",
      "type": "function"
    }
  ],
  "bytecode": "0x60806040523480156200001157600080fd5b506040518060400160405280600781526020017f506574204e4654000000000000000000000000000000000000000000000000008152506040518060400160405280600481526020017f504e465400000000000000000000000000000000000000000000000000000000815250816000908051906020019062000096929190620000bf565b508060019080519060200190620000af929190620000bf565b50505042600881905550620001d4565b828054620000cd906200016f565b90600052602060002090601f016020900481019282620000f157600085556200013d565b82601f106200010c57805160ff19168380011785556200013d565b828001600101855582156200013d579182015b828111156200013c5782518255916020019190600101906200011f565b5b5090506200014c919062000150565b5090565b5b808211156200016b57600081600090555060010162000151565b5090565b600060028204905060018216806200018857607f821691505b602082108114156200019f576200019e620001a5565b5b50919050565b7f4e487b7100000000000000000000000000000000000000000000000000000000600052602260045260246000fd5b612f3780620001e46000396000f3fe608060405234801561001057600080fd5b50600436106101215760003560e01c80636352211e116100ad578063b88d4fde11610071578063b88d4fde14610330578063c87b56dd1461034c578063d85d3d271461037c578063dc09a6b5146103ac578063e985e9c5146103ca57610121565b80636352211e146102785780636a91604b146102a857806370a08231146102c657806395d89b41146102f6578063a22cb4651461031457610121565b80630db8f857116100f45780630db8f857146101c057806316f8ba14146101f0578063171314f11461022257806323b872dd1461024057806342842e0e1461025c57610121565b806301ffc9a71461012657806306fdde0314610156578063081812fc14610174578063095ea7b3146101a4575b600080fd5b610140600480360381019061013b9190611f15565b6103fa565b60405161014d9190612370565b60405180910390f35b61015e6104dc565b60405161016b919061238b565b60405180910390f35b61018e60048036038101906101899190611fb8565b61056e565b60405161019b9190612309565b60405180910390f35b6101be60048036038101906101b99190611ed5565b6105f3565b005b6101da60048036038101906101d59190611fb8565b61070b565b6040516101e79190612370565b60405180910390f35b61020a60048036038101906102059190611fb8565b610812565b604051610219939291906125c8565b60405180910390f35b61022a610849565b60405161023791906125ad565b60405180910390f35b61025a60048036038101906102559190611dbf565b61084f565b005b61027660048036038101906102719190611dbf565b6108af565b005b610292600480360381019061028d9190611fb8565b6108cf565b60405161029f9190612309565b60405180910390f35b6102b0610981565b6040516102bd91906125ad565b60405180910390f35b6102e060048036038101906102db9190611d52565b610987565b6040516102ed91906125ad565b60405180910390f35b6102fe610a3f565b60405161030b919061238b565b60405180910390f35b61032e60048036038101906103299190611e95565b610ad1565b005b61034a60048036038101906103459190611e12565b610ae7565b005b61036660048036038101906103619190611fb8565b610b49565b604051610373919061238b565b60405180910390f35b61039660048036038101906103919190611f6f565b610c9b565b6040516103a391906125ad565b60405180910390f35b6103b4610d7d565b6040516103c191906125ad565b60405180910390f35b6103e460048036038101906103df9190611d7f565b610d83565b6040516103f19190612370565b60405180910390f35b60007f80ac58cd000000000000000000000000000000000000000000000000000000007bffffffffffffffffffffffffffffffffffffffffffffffffffffffff1916827bffffffffffffffffffffffffffffffffffffffffffffffffffffffff191614806104c557507f5b5e139f000000000000000000000000000000000000000000000000000000007bffffffffffffffffffffffffffffffffffffffffffffffffffffffff1916827bffffffffffffffffffffffffffffffffffffffffffffffffffffffff1916145b806104d557506104d482610e17565b5b9050919050565b6060600080546104eb9061283a565b80601f01602080910402602001604051908101604052809291908181526020018280546105179061283a565b80156105645780601f1061053957610100808354040283529160200191610564565b820191906000526020600020905b81548152906001019060200180831161054757829003601f168201915b5050505050905090565b600061057982610e81565b6105b8576040517f08c379a00000000000000000000000000000000000000000000000000000000081526004016105af9061252d565b60405180910390fd5b6004600083815260200190815260200160002060009054906101000a900473ffffffffffffffffffffffffffffffffffffffff169050919050565b60006105fe826108cf565b90508073ffffffffffffffffffffffffffffffffffffffff168373ffffffffffffffffffffffffffffffffffffffff16141561066f576040517f08c379a00000000000000000000000000000000000000000000000000000000081526004016106669061256d565b60405180910390fd5b8073ffffffffffffffffffffffffffffffffffffffff1661068e610eed565b73ffffffffffffffffffffffffffffffffffffffff1614806106bd57506106bc816106b7610eed565b610d83565b5b6106fc576040517f08c379a00000000000000000000000000000000000000000000000000000000081526004016106f39061246d565b60405180910390fd5b6107068383610ef5565b505050565b60008060096000848152602001908152602001600020604051806060016040529081600082015481526020016001820160009054906101000a900460ff16151515158152602001600282015481525050905061012c60085482604001516107729190612750565b11156107aa576040517ff255fe8b00000000000000000000000000000000000000000000000000000000815260040160405180910390fd5b42600960008581526020019081526020016000206002018190555060016009600085815260200190815260200160002060010160006101000a81548160ff02191690831515021790555061012c4261080291906126c9565b6008819055506001915050919050565b60096020528060005260406000206000915090508060000154908060010160009054906101000a900460ff16908060020154905083565b60075481565b61086061085a610eed565b82610fae565b61089f576040517f08c379a00000000000000000000000000000000000000000000000000000000081526004016108969061258d565b60405180910390fd5b6108aa83838361108c565b505050565b6108ca83838360405180602001604052806000815250610ae7565b505050565b6000806002600084815260200190815260200160002060009054906101000a900473ffffffffffffffffffffffffffffffffffffffff169050600073ffffffffffffffffffffffffffffffffffffffff168173ffffffffffffffffffffffffffffffffffffffff161415610978576040517f08c379a000000000000000000000000000000000000000000000000000000000815260040161096f906124ad565b60405180910390fd5b80915050919050565b60085481565b60008073ffffffffffffffffffffffffffffffffffffffff168273ffffffffffffffffffffffffffffffffffffffff1614156109f8576040517f08c379a00000000000000000000000000000000000000000000000000000000081526004016109ef9061248d565b60405180910390fd5b600360008373ffffffffffffffffffffffffffffffffffffffff1673ffffffffffffffffffffffffffffffffffffffff168152602001908152602001600020549050919050565b606060018054610a4e9061283a565b80601f0160208091040260200160405190810160405280929190818152602001828054610a7a9061283a565b8015610ac75780601f10610a9c57610100808354040283529160200191610ac7565b820191906000526020600020905b815481529060010190602001808311610aaa57829003601f168201915b5050505050905090565b610ae3610adc610eed565b83836112f3565b5050565b610af8610af2610eed565b83610fae565b610b37576040517f08c379a0000000000000000000000000000000000000000000000000000000008152600401610b2e9061258d565b60405180910390fd5b610b4384848484611460565b50505050565b6060610b5482610e81565b610b93576040517f08c379a0000000000000000000000000000000000000000000000000000000008152600401610b8a9061250d565b60405180910390fd5b6000600660008481526020019081526020016000208054610bb39061283a565b80601f0160208091040260200160405190810160405280929190818152602001828054610bdf9061283a565b8015610c2c5780601f10610c0157610100808354040283529160200191610c2c565b820191906000526020600020905b815481529060010190602001808311610c0f57829003601f168201915b505050505090506000610c3d6114bc565b9050600081511415610c53578192505050610c96565b600082511115610c88578082604051602001610c709291906122e5565b60405160208183030381529060405292505050610c96565b610c91846114d3565b925050505b919050565b600060076000815480929190610cb09061289d565b9190505550610cc13360075461157a565b610ccd60075483611598565b60405180606001604052806007548152602001600015158152602001428152506009600060075481526020019081526020016000206000820151816000015560208201518160010160006101000a81548160ff021916908315150217905550604082015181600201559050506007547fd4c3f7782ecae0d1a12013592109b1bf02689d7f4e8ab653c75a61aea745e3be42604051610d6b91906125ad565b60405180910390a26007549050919050565b61012c81565b6000600560008473ffffffffffffffffffffffffffffffffffffffff1673ffffffffffffffffffffffffffffffffffffffff16815260200190815260200160002060008373ffffffffffffffffffffffffffffffffffffffff1673ffffffffffffffffffffffffffffffffffffffff16815260200190815260200160002060009054906101000a900460ff16905092915050565b60007f01ffc9a7000000000000000000000000000000000000000000000000000000007bffffffffffffffffffffffffffffffffffffffffffffffffffffffff1916827bffffffffffffffffffffffffffffffffffffffffffffffffffffffff1916149050919050565b60008073ffffffffffffffffffffffffffffffffffffffff166002600084815260200190815260200160002060009054906101000a900473ffffffffffffffffffffffffffffffffffffffff1673ffffffffffffffffffffffffffffffffffffffff1614159050919050565b600033905090565b816004600083815260200190815260200160002060006101000a81548173ffffffffffffffffffffffffffffffffffffffff021916908373ffffffffffffffffffffffffffffffffffffffff160217905550808273ffffffffffffffffffffffffffffffffffffffff16610f68836108cf565b73ffffffffffffffffffffffffffffffffffffffff167f8c5be1e5ebec7d5bd14f71427d1e84f3dd0314c0f7b2291e5b200ac8c7c3b92560405160405180910390a45050565b6000610fb982610e81565b610ff8576040517f08c379a0000000000000000000000000000000000000000000000000000000008152600401610fef9061244d565b60405180910390fd5b6000611003836108cf565b90508073ffffffffffffffffffffffffffffffffffffffff168473ffffffffffffffffffffffffffffffffffffffff16148061104557506110448185610d83565b5b8061108357508373ffffffffffffffffffffffffffffffffffffffff1661106b8461056e565b73ffffffffffffffffffffffffffffffffffffffff16145b91505092915050565b8273ffffffffffffffffffffffffffffffffffffffff166110ac826108cf565b73ffffffffffffffffffffffffffffffffffffffff1614611102576040517f08c379a00000000000000000000000000000000000000000000000000000000081526004016110f9906123cd565b60405180910390fd5b600073ffffffffffffffffffffffffffffffffffffffff168273ffffffffffffffffffffffffffffffffffffffff161415611172576040517f08c379a00000000000000000000000000000000000000000000000000000000081526004016111699061240d565b60405180910390fd5b61117d83838361160c565b611188600082610ef5565b6001600360008573ffffffffffffffffffffffffffffffffffffffff1673ffffffffffffffffffffffffffffffffffffffff16815260200190815260200160002060008282546111d89190612750565b925050819055506001600360008473ffffffffffffffffffffffffffffffffffffffff1673ffffffffffffffffffffffffffffffffffffffff168152602001908152602001600020600082825461122f91906126c9565b92505081905550816002600083815260200190815260200160002060006101000a81548173ffffffffffffffffffffffffffffffffffffffff021916908373ffffffffffffffffffffffffffffffffffffffff160217905550808273ffffffffffffffffffffffffffffffffffffffff168473ffffffffffffffffffffffffffffffffffffffff167fddf252ad1be2c89b69c2b068fc378daa952ba7f163c4a11628f55a4df523b3ef60405160405180910390a46112ee838383611611565b505050565b8173ffffffffffffffffffffffffffffffffffffffff168373ffffffffffffffffffffffffffffffffffffffff161415611362576040517f08c379a00000000000000000000000000000000000000000000000000000000081526004016113599061242d565b60405180910390fd5b80600560008573ffffffffffffffffffffffffffffffffffffffff1673ffffffffffffffffffffffffffffffffffffffff16815260200190815260200160002060008473ffffffffffffffffffffffffffffffffffffffff1673ffffffffffffffffffffffffffffffffffffffff16815260200190815260200160002060006101000a81548160ff0219169083151502179055508173ffffffffffffffffffffffffffffffffffffffff168373ffffffffffffffffffffffffffffffffffffffff167f17307eab39ab6107e8899845ad3d59bd9653f200f220920489ca2b5937696c31836040516114539190612370565b60405180910390a3505050565b61146b84848461108c565b61147784848484611616565b6114b6576040517f08c379a00000000000000000000000000000000000000000000000000000000081526004016114ad906123ad565b60405180910390fd5b50505050565b606060405180602001604052806000815250905090565b60606114de82610e81565b61151d576040517f08c379a00000000000000000000000000000000000000000000000000000000081526004016115149061254d565b60405180910390fd5b60006115276114bc565b905060008151116115475760405180602001604052806000815250611572565b80611551846117ad565b6040516020016115629291906122e5565b6040516020818303038152906040525b915050919050565b61159482826040518060200160405280600081525061190e565b5050565b6115a182610e81565b6115e0576040517f08c379a00000000000000000000000000000000000000000000000000000000081526004016115d7906124cd565b60405180910390fd5b80600660008481526020019081526020016000209080519060200190611607929190611b66565b505050565b505050565b505050565b60006116378473ffffffffffffffffffffffffffffffffffffffff16611969565b156117a0578373ffffffffffffffffffffffffffffffffffffffff1663150b7a02611660610eed565b8786866040518563ffffffff1660e01b81526004016116829493929190612324565b602060405180830381600087803b15801561169c57600080fd5b505af19250505080156116cd57506040513d601f19601f820116820180604052508101906116ca9190611f42565b60015b611750573d80600081146116fd576040519150601f19603f3d011682016040523d82523d6000602084013e611702565b606091505b50600081511415611748576040517f08c379a000000000000000000000000000000000000000000000000000000000815260040161173f906123ad565b60405180910390fd5b805181602001fd5b63150b7a0260e01b7bffffffffffffffffffffffffffffffffffffffffffffffffffffffff1916817bffffffffffffffffffffffffffffffffffffffffffffffffffffffff1916149150506117a5565b600190505b949350505050565b606060008214156117f5576040518060400160405280600181526020017f30000000000000000000000000000000000000000000000000000000000000008152509050611909565b600082905060005b600082146118275780806118109061289d565b915050600a82611820919061271f565b91506117fd565b60008167ffffffffffffffff811115611843576118426129d3565b5b6040519080825280601f01601f1916602001820160405280156118755781602001600182028036833780820191505090505b5090505b600085146119025760018261188e9190612750565b9150600a8561189d91906128e6565b60306118a991906126c9565b60f81b8183815181106118bf576118be6129a4565b5b60200101907effffffffffffffffffffffffffffffffffffffffffffffffffffffffffffff1916908160001a905350600a856118fb919061271f565b9450611879565b8093505050505b919050565b611918838361198c565b6119256000848484611616565b611964576040517f08c379a000000000000000000000000000000000000000000000000000000000815260040161195b906123ad565b60405180910390fd5b505050565b6000808273ffffffffffffffffffffffffffffffffffffffff163b119050919050565b600073ffffffffffffffffffffffffffffffffffffffff168273ffffffffffffffffffffffffffffffffffffffff1614156119fc576040517f08c379a00000000000000000000000000000000000000000000000000000000081526004016119f3906124ed565b60405180910390fd5b611a0581610e81565b15611a45576040517f08c379a0000000000000000000000000000000000000000000000000000000008152600401611a3c906123ed565b60405180910390fd5b611a516000838361160c565b6001600360008473ffffffffffffffffffffffffffffffffffffffff1673ffffffffffffffffffffffffffffffffffffffff1681526020019081526020016000206000828254611aa191906126c9565b92505081905550816002600083815260200190815260200160002060006101000a81548173ffffffffffffffffffffffffffffffffffffffff021916908373ffffffffffffffffffffffffffffffffffffffff160217905550808273ffffffffffffffffffffffffffffffffffffffff16600073ffffffffffffffffffffffffffffffffffffffff167fddf252ad1be2c89b69c2b068fc378daa952ba7f163c4a11628f55a4df523b3ef60405160405180910390a4611b6260008383611611565b5050565b828054611b729061283a565b90600052602060002090601f016020900481019282611b945760008555611bdb565b82601f10611bad57805160ff1916838001178555611bdb565b82800160010185558215611bdb579182015b82811115611bda578251825591602001919060010190611bbf565b5b509050611be89190611bec565b5090565b5b80821115611c05576000816000905550600101611bed565b5090565b6000611c1c611c1784612624565b6125ff565b905082815260208101848484011115611c3857611c37612a07565b5b611c438482856127f8565b509392505050565b6000611c5e611c5984612655565b6125ff565b905082815260208101848484011115611c7a57611c79612a07565b5b611c858482856127f8565b509392505050565b600081359050611c9c81612ea5565b92915050565b600081359050611cb181612ebc565b92915050565b600081359050611cc681612ed3565b92915050565b600081519050611cdb81612ed3565b92915050565b600082601f830112611cf657611cf5612a02565b5b8135611d06848260208601611c09565b91505092915050565b600082601f830112611d2457611d23612a02565b5b8135611d34848260208601611c4b565b91505092915050565b600081359050611d4c81612eea565b92915050565b600060208284031215611d6857611d67612a11565b5b6000611d7684828501611c8d565b91505092915050565b60008060408385031215611d9657611d95612a11565b5b6000611da485828601611c8d565b9250506020611db585828601611c8d565b9150509250929050565b600080600060608486031215611dd857611dd7612a11565b5b6000611de686828701611c8d565b9350506020611df786828701611c8d565b9250506040611e0886828701611d3d565b9150509250925092565b60008060008060808587031215611e2c57611e2b612a11565b5b6000611e3a87828801611c8d565b9450506020611e4b87828801611c8d565b9350506040611e5c87828801611d3d565b925050606085013567ffffffffffffffff811115611e7d57611e7c612a0c565b5b611e8987828801611ce1565b91505092959194509250565b60008060408385031215611eac57611eab612a11565b5b6000611eba85828601611c8d565b9250506020611ecb85828601611ca2565b9150509250929050565b60008060408385031215611eec57611eeb612a11565b5b6000611efa85828601611c8d565b9250506020611f0b85828601611d3d565b9150509250929050565b600060208284031215611f2b57611f2a612a11565b5b6000611f3984828501611cb7565b91505092915050565b600060208284031215611f5857611f57612a11565b5b6000611f6684828501611ccc565b91505092915050565b600060208284031215611f8557611f84612a11565b5b600082013567ffffffffffffffff811115611fa357611fa2612a0c565b5b611faf84828501611d0f565b91505092915050565b600060208284031215611fce57611fcd612a11565b5b6000611fdc84828501611d3d565b91505092915050565b611fee81612784565b82525050565b611ffd81612796565b82525050565b600061200e82612686565b612018818561269c565b9350612028818560208601612807565b61203181612a16565b840191505092915050565b600061204782612691565b61205181856126ad565b9350612061818560208601612807565b61206a81612a16565b840191505092915050565b600061208082612691565b61208a81856126be565b935061209a818560208601612807565b80840191505092915050565b60006120b36032836126ad565b91506120be82612a27565b604082019050919050565b60006120d66025836126ad565b91506120e182612a76565b604082019050919050565b60006120f9601c836126ad565b915061210482612ac5565b602082019050919050565b600061211c6024836126ad565b915061212782612aee565b604082019050919050565b600061213f6019836126ad565b915061214a82612b3d565b602082019050919050565b6000612162602c836126ad565b915061216d82612b66565b604082019050919050565b60006121856038836126ad565b915061219082612bb5565b604082019050919050565b60006121a8602a836126ad565b91506121b382612c04565b604082019050919050565b60006121cb6029836126ad565b91506121d682612c53565b604082019050919050565b60006121ee602e836126ad565b91506121f982612ca2565b604082019050919050565b60006122116020836126ad565b915061221c82612cf1565b602082019050919050565b60006122346031836126ad565b915061223f82612d1a565b604082019050919050565b6000612257602c836126ad565b915061226282612d69565b604082019050919050565b600061227a602f836126ad565b915061228582612db8565b604082019050919050565b600061229d6021836126ad565b91506122a882612e07565b604082019050919050565b60006122c06031836126ad565b91506122cb82612e56565b604082019050919050565b6122df816127ee565b82525050565b60006122f18285612075565b91506122fd8284612075565b91508190509392505050565b600060208201905061231e6000830184611fe5565b92915050565b60006080820190506123396000830187611fe5565b6123466020830186611fe5565b61235360408301856122d6565b81810360608301526123658184612003565b905095945050505050565b60006020820190506123856000830184611ff4565b92915050565b600060208201905081810360008301526123a5818461203c565b905092915050565b600060208201905081810360008301526123c6816120a6565b9050919050565b600060208201905081810360008301526123e6816120c9565b9050919050565b60006020820190508181036000830152612406816120ec565b9050919050565b600060208201905081810360008301526124268161210f565b9050919050565b6000602082019050818103600083015261244681612132565b9050919050565b6000602082019050818103600083015261246681612155565b9050919050565b6000602082019050818103600083015261248681612178565b9050919050565b600060208201905081810360008301526124a68161219b565b9050919050565b600060208201905081810360008301526124c6816121be565b9050919050565b600060208201905081810360008301526124e6816121e1565b9050919050565b6000602082019050818103600083015261250681612204565b9050919050565b6000602082019050818103600083015261252681612227565b9050919050565b600060208201905081810360008301526125468161224a565b9050919050565b600060208201905081810360008301526125668161226d565b9050919050565b6000602082019050818103600083015261258681612290565b9050919050565b600060208201905081810360008301526125a6816122b3565b9050919050565b60006020820190506125c260008301846122d6565b92915050565b60006060820190506125dd60008301866122d6565b6125ea6020830185611ff4565b6125f760408301846122d6565b949350505050565b600061260961261a565b9050612615828261286c565b919050565b6000604051905090565b600067ffffffffffffffff82111561263f5761263e6129d3565b5b61264882612a16565b9050602081019050919050565b600067ffffffffffffffff8211156126705761266f6129d3565b5b61267982612a16565b9050602081019050919050565b600081519050919050565b600081519050919050565b600082825260208201905092915050565b600082825260208201905092915050565b600081905092915050565b60006126d4826127ee565b91506126df836127ee565b9250827fffffffffffffffffffffffffffffffffffffffffffffffffffffffffffffffff0382111561271457612713612917565b5b828201905092915050565b600061272a826127ee565b9150612735836127ee565b92508261274557612744612946565b5b828204905092915050565b600061275b826127ee565b9150612766836127ee565b92508282101561277957612778612917565b5b828203905092915050565b600061278f826127ce565b9050919050565b60008115159050919050565b60007fffffffff0000000000000000000000000000000000000000000000000000000082169050919050565b600073ffffffffffffffffffffffffffffffffffffffff82169050919050565b6000819050919050565b82818337600083830152505050565b60005b8381101561282557808201518184015260208101905061280a565b83811115612834576000848401525b50505050565b6000600282049050600182168061285257607f821691505b6020821081141561286657612865612975565b5b50919050565b61287582612a16565b810181811067ffffffffffffffff82111715612894576128936129d3565b5b80604052505050565b60006128a8826127ee565b91507fffffffffffffffffffffffffffffffffffffffffffffffffffffffffffffffff8214156128db576128da612917565b5b600182019050919050565b60006128f1826127ee565b91506128fc836127ee565b92508261290c5761290b612946565b5b828206905092915050565b7f4e487b7100000000000000000000000000000000000000000000000000000000600052601160045260246000fd5b7f4e487b7100000000000000000000000000000000000000000000000000000000600052601260045260246000fd5b7f4e487b7100000000000000000000000000000000000000000000000000000000600052602260045260246000fd5b7f4e487b7100000000000000000000000000000000000000000000000000000000600052603260045260246000fd5b7f4e487b7100000000000000000000000000000000000000000000000000000000600052604160045260246000fd5b600080fd5b600080fd5b600080fd5b600080fd5b6000601f19601f8301169050919050565b7f4552433732313a207472616e7366657220746f206e6f6e20455243373231526560008201527f63656976657220696d706c656d656e7465720000000000000000000000000000602082015250565b7f4552433732313a207472616e736665722066726f6d20696e636f72726563742060008201527f6f776e6572000000000000000000000000000000000000000000000000000000602082015250565b7f4552433732313a20746f6b656e20616c7265616479206d696e74656400000000600082015250565b7f4552433732313a207472616e7366657220746f20746865207a65726f2061646460008201527f7265737300000000000000000000000000000000000000000000000000000000602082015250565b7f4552433732313a20617070726f766520746f2063616c6c657200000000000000600082015250565b7f4552433732313a206f70657261746f7220717565727920666f72206e6f6e657860008201527f697374656e7420746f6b656e0000000000000000000000000000000000000000602082015250565b7f4552433732313a20617070726f76652063616c6c6572206973206e6f74206f7760008201527f6e6572206e6f7220617070726f76656420666f7220616c6c0000000000000000602082015250565b7f4552433732313a2062616c616e636520717565727920666f7220746865207a6560008201527f726f206164647265737300000000000000000000000000000000000000000000602082015250565b7f4552433732313a206f776e657220717565727920666f72206e6f6e657869737460008201527f656e7420746f6b656e0000000000000000000000000000000000000000000000602082015250565b7f45524337323155524953746f726167653a2055524920736574206f66206e6f6e60008201527f6578697374656e7420746f6b656e000000000000000000000000000000000000602082015250565b7f4552433732313a206d696e7420746f20746865207a65726f2061646472657373600082015250565b7f45524337323155524953746f726167653a2055524920717565727920666f722060008201527f6e6f6e6578697374656e7420746f6b656e000000000000000000000000000000602082015250565b7f4552433732313a20617070726f76656420717565727920666f72206e6f6e657860008201527f697374656e7420746f6b656e0000000000000000000000000000000000000000602082015250565b7f4552433732314d657461646174613a2055524920717565727920666f72206e6f60008201527f6e6578697374656e7420746f6b656e0000000000000000000000000000000000602082015250565b7f4552433732313a20617070726f76616c20746f2063757272656e74206f776e6560008201527f7200000000000000000000000000000000000000000000000000000000000000602082015250565b7f4552433732313a207472616e736665722063616c6c6572206973206e6f74206f60008201527f776e6572206e6f7220617070726f766564000000000000000000000000000000602082015250565b612eae81612784565b8114612eb957600080fd5b50565b612ec581612796565b8114612ed057600080fd5b50565b612edc816127a2565b8114612ee757600080fd5b50565b612ef3816127ee565b8114612efe57600080fd5b5056fea264697066735822122042db8718bee5968fe3f0a795df996031933f611e7c2cd381b371ec8afecdcd5b64736f6c63430008070033",
  "linkReferences": {},
  "deployedLinkReferences": {}
}