{
  "_format": "hh-sol-artifact-1",
  "contractName": "Pet",
  "sourceName": "contracts/Pet.sol",
  "abi": [
    {
      "inputs": [],
      "stateMutability": "nonpayable",
      "type": "constructor"
    },
    {
      "inputs": [],
      "name": "Pet__PetStarves",
      "type": "error"
    },
    {
      "anonymous": false,
      "inputs": [
        {
          "indexed": true,
          "internalType": "address",
          "name": "owner",
          "type": "address"
        },
        {
          "indexed": true,
          "internalType": "address",
          "name": "approved",
          "type": "address"
        },
        {
          "indexed": true,
          "internalType": "uint256",
          "name": "tokenId",
          "type": "uint256"
        }
      ],
      "name": "Approval",
      "type": "event"
    },
    {
      "anonymous": false,
      "inputs": [
        {
          "indexed": true,
          "internalType": "address",
          "name": "owner",
          "type": "address"
        },
        {
          "indexed": true,
          "internalType": "address",
          "name": "operator",
          "type": "address"
        },
        {
          "indexed": false,
          "internalType": "bool",
          "name": "approved",
          "type": "bool"
        }
      ],
      "name": "ApprovalForAll",
      "type": "event"
    },
    {
      "anonymous": false,
      "inputs": [
        {
          "indexed": true,
          "internalType": "uint256",
          "name": "tokenId",
          "type": "uint256"
        },
        {
          "indexed": false,
          "internalType": "uint256",
          "name": "createdAt",
          "type": "uint256"
        }
      ],
      "name": "NFTMinted",
      "type": "event"
    },
    {
      "anonymous": false,
      "inputs": [
        {
          "indexed": true,
          "internalType": "address",
          "name": "from",
          "type": "address"
        },
        {
          "indexed": true,
          "internalType": "address",
          "name": "to",
          "type": "address"
        },
        {
          "indexed": true,
          "internalType": "uint256",
          "name": "tokenId",
          "type": "uint256"
        }
      ],
      "name": "Transfer",
      "type": "event"
    },
    {
      "inputs": [
        {
          "internalType": "uint256",
          "name": "tokenId",
          "type": "uint256"
        }
      ],
      "name": "_feedPet",
      "outputs": [
        {
          "internalType": "bool",
          "name": "",
          "type": "bool"
        }
      ],
      "stateMutability": "nonpayable",
      "type": "function"
    },
    {
      "inputs": [
        {
          "internalType": "address",
          "name": "to",
          "type": "address"
        },
        {
          "internalType": "uint256",
          "name": "tokenId",
          "type": "uint256"
        }
      ],
      "name": "approve",
      "outputs": [],
      "stateMutability": "nonpayable",
      "type": "function"
    },
    {
      "inputs": [
        {
          "internalType": "address",
          "name": "owner",
          "type": "address"
        }
      ],
      "name": "balanceOf",
      "outputs": [
        {
          "internalType": "uint256",
          "name": "",
          "type": "uint256"
        }
      ],
      "stateMutability": "view",
      "type": "function"
    },
    {
      "inputs": [
        {
          "internalType": "uint256",
          "name": "tokenId",
          "type": "uint256"
        }
      ],
      "name": "getApproved",
      "outputs": [
        {
          "internalType": "address",
          "name": "",
          "type": "address"
        }
      ],
      "stateMutability": "view",
      "type": "function"
    },
    {
      "inputs": [],
      "name": "getLastTimestampt",
      "outputs": [
        {
          "internalType": "uint256",
          "name": "",
          "type": "uint256"
        }
      ],
      "stateMutability": "view",
      "type": "function"
    },
    {
      "inputs": [
        {
          "internalType": "uint256",
          "name": "tokenId",
          "type": "uint256"
        }
      ],
      "name": "getPet",
      "outputs": [
        {
          "components": [
            {
              "internalType": "uint256",
              "name": "tokenId",
              "type": "uint256"
            },
            {
              "internalType": "bool",
              "name": "isPetFed",
              "type": "bool"
            },
            {
              "internalType": "uint256",
              "name": "lastUptatedAt",
              "type": "uint256"
            }
          ],
          "internalType": "struct Pet.PetItem",
          "name": "",
          "type": "tuple"
        }
      ],
      "stateMutability": "view",
      "type": "function"
    },
    {
      "inputs": [],
      "name": "getTime",
      "outputs": [
        {
          "internalType": "uint256",
          "name": "",
          "type": "uint256"
        }
      ],
      "stateMutability": "pure",
      "type": "function"
    },
    {
      "inputs": [],
      "name": "getTokenId",
      "outputs": [
        {
          "internalType": "uint256",
          "name": "",
          "type": "uint256"
        }
      ],
      "stateMutability": "view",
      "type": "function"
    },
    {
      "inputs": [
        {
          "internalType": "address",
          "name": "owner",
          "type": "address"
        },
        {
          "internalType": "address",
          "name": "operator",
          "type": "address"
        }
      ],
      "name": "isApprovedForAll",
      "outputs": [
        {
          "internalType": "bool",
          "name": "",
          "type": "bool"
        }
      ],
      "stateMutability": "view",
      "type": "function"
    },
    {
      "inputs": [
        {
          "internalType": "string",
          "name": "tokenURI",
          "type": "string"
        }
      ],
      "name": "mint",
      "outputs": [
        {
          "internalType": "uint256",
          "name": "",
          "type": "uint256"
        }
      ],
      "stateMutability": "nonpayable",
      "type": "function"
    },
    {
      "inputs": [],
      "name": "name",
      "outputs": [
        {
          "internalType": "string",
          "name": "",
          "type": "string"
        }
      ],
      "stateMutability": "view",
      "type": "function"
    },
    {
      "inputs": [
        {
          "internalType": "uint256",
          "name": "tokenId",
          "type": "uint256"
        }
      ],
      "name": "ownerOf",
      "outputs": [
        {
          "internalType": "address",
          "name": "",
          "type": "address"
        }
      ],
      "stateMutability": "view",
      "type": "function"
    },
    {
      "inputs": [],
      "name": "s_lastTimestamp",
      "outputs": [
        {
          "internalType": "uint256",
          "name": "",
          "type": "uint256"
        }
      ],
      "stateMutability": "view",
      "type": "function"
    },
    {
      "inputs": [
        {
          "internalType": "uint256",
          "name": "",
          "type": "uint256"
        }
      ],
      "name": "s_petItems",
      "outputs": [
        {
          "internalType": "uint256",
          "name": "tokenId",
          "type": "uint256"
        },
        {
          "internalType": "bool",
          "name": "isPetFed",
          "type": "bool"
        },
        {
          "internalType": "uint256",
          "name": "lastUptatedAt",
          "type": "uint256"
        }
      ],
      "stateMutability": "view",
      "type": "function"
    },
    {
      "inputs": [],
      "name": "s_time",
      "outputs": [
        {
          "internalType": "uint256",
          "name": "",
          "type": "uint256"
        }
      ],
      "stateMutability": "view",
      "type": "function"
    },
    {
      "inputs": [],
      "name": "s_tokenId",
      "outputs": [
        {
          "internalType": "uint256",
          "name": "",
          "type": "uint256"
        }
      ],
      "stateMutability": "view",
      "type": "function"
    },
    {
      "inputs": [
        {
          "internalType": "address",
          "name": "from",
          "type": "address"
        },
        {
          "internalType": "address",
          "name": "to",
          "type": "address"
        },
        {
          "internalType": "uint256",
          "name": "tokenId",
          "type": "uint256"
        }
      ],
      "name": "safeTransferFrom",
      "outputs": [],
      "stateMutability": "nonpayable",
      "type": "function"
    },
    {
      "inputs": [
        {
          "internalType": "address",
          "name": "from",
          "type": "address"
        },
        {
          "internalType": "address",
          "name": "to",
          "type": "address"
        },
        {
          "internalType": "uint256",
          "name": "tokenId",
          "type": "uint256"
        },
        {
          "internalType": "bytes",
          "name": "_data",
          "type": "bytes"
        }
      ],
      "name": "safeTransferFrom",
      "outputs": [],
      "stateMutability": "nonpayable",
      "type": "function"
    },
    {
      "inputs": [
        {
          "internalType": "address",
          "name": "operator",
          "type": "address"
        },
        {
          "internalType": "bool",
          "name": "approved",
          "type": "bool"
        }
      ],
      "name": "setApprovalForAll",
      "outputs": [],
      "stateMutability": "nonpayable",
      "type": "function"
    },
    {
      "inputs": [
        {
          "internalType": "bytes4",
          "name": "interfaceId",
          "type": "bytes4"
        }
      ],
      "name": "supportsInterface",
      "outputs": [
        {
          "internalType": "bool",
          "name": "",
          "type": "bool"
        }
      ],
      "stateMutability": "view",
      "type": "function"
    },
    {
      "inputs": [],
      "name": "symbol",
      "outputs": [
        {
          "internalType": "string",
          "name": "",
          "type": "string"
        }
      ],
      "stateMutability": "view",
      "type": "function"
    },
    {
      "inputs": [
        {
          "internalType": "uint256",
          "name": "tokenId",
          "type": "uint256"
        }
      ],
      "name": "tokenURI",
      "outputs": [
        {
          "internalType": "string",
          "name": "",
          "type": "string"
        }
      ],
      "stateMutability": "view",
      "type": "function"
    },
    {
      "inputs": [
        {
          "internalType": "address",
          "name": "from",
          "type": "address"
        },
        {
          "internalType": "address",
          "name": "to",
          "type": "address"
        },
        {
          "internalType": "uint256",
          "name": "tokenId",
          "type": "uint256"
        }
      ],
      "name": "transferFrom",
      "outputs": [],
      "stateMutability": "nonpayable",
      "type": "function"
    }
  ],
  "bytecode": "0x60806040523480156200001157600080fd5b506040518060400160405280600781526020017f506574204e4654000000000000000000000000000000000000000000000000008152506040518060400160405280600481526020017f504e465400000000000000000000000000000000000000000000000000000000815250816000908051906020019062000096929190620000bf565b508060019080519060200190620000af929190620000bf565b50505042600881905550620001d4565b828054620000cd906200016f565b90600052602060002090601f016020900481019282620000f157600085556200013d565b82601f106200010c57805160ff19168380011785556200013d565b828001600101855582156200013d579182015b828111156200013c5782518255916020019190600101906200011f565b5b5090506200014c919062000150565b5090565b5b808211156200016b57600081600090555060010162000151565b5090565b600060028204905060018216806200018857607f821691505b602082108114156200019f576200019e620001a5565b5b50919050565b7f4e487b7100000000000000000000000000000000000000000000000000000000600052602260045260246000fd5b61310580620001e46000396000f3fe608060405234801561001057600080fd5b506004361061014d5760003560e01c806359d55194116100c3578063a22cb4651161007c578063a22cb465146103ca578063b88d4fde146103e6578063c87b56dd14610402578063d85d3d2714610432578063dc09a6b514610462578063e985e9c5146104805761014d565b806359d55194146102e05780636352211e14610310578063664827f6146103405780636a91604b1461035e57806370a082311461037c57806395d89b41146103ac5761014d565b80630db8f857116101155780630db8f8571461020a57806316f8ba141461023a578063171314f11461026c57806323b872dd1461028a57806342842e0e146102a6578063557ed1ba146102c25761014d565b8063010a38f51461015257806301ffc9a71461017057806306fdde03146101a0578063081812fc146101be578063095ea7b3146101ee575b600080fd5b61015a6104b0565b604051610167919061277b565b60405180910390f35b61018a60048036038101906101859190612068565b6104ba565b6040516101979190612523565b60405180910390f35b6101a861059c565b6040516101b5919061253e565b60405180910390f35b6101d860048036038101906101d3919061210b565b61062e565b6040516101e591906124bc565b60405180910390f35b61020860048036038101906102039190612028565b6106b3565b005b610224600480360381019061021f919061210b565b6107cb565b6040516102319190612523565b60405180910390f35b610254600480360381019061024f919061210b565b6108d2565b60405161026393929190612796565b60405180910390f35b610274610909565b604051610281919061277b565b60405180910390f35b6102a4600480360381019061029f9190611f12565b61090f565b005b6102c060048036038101906102bb9190611f12565b61096f565b005b6102ca61098f565b6040516102d7919061277b565b60405180910390f35b6102fa60048036038101906102f5919061210b565b610999565b6040516103079190612760565b60405180910390f35b61032a6004803603810190610325919061210b565b6109f5565b60405161033791906124bc565b60405180910390f35b610348610aa7565b604051610355919061277b565b60405180910390f35b610366610ab1565b604051610373919061277b565b60405180910390f35b61039660048036038101906103919190611ea5565b610ab7565b6040516103a3919061277b565b60405180910390f35b6103b4610b6f565b6040516103c1919061253e565b60405180910390f35b6103e460048036038101906103df9190611fe8565b610c01565b005b61040060048036038101906103fb9190611f65565b610c17565b005b61041c6004803603810190610417919061210b565b610c79565b604051610429919061253e565b60405180910390f35b61044c600480360381019061044791906120c2565b610dcb565b604051610459919061277b565b60405180910390f35b61046a610ead565b604051610477919061277b565b60405180910390f35b61049a60048036038101906104959190611ed2565b610eb3565b6040516104a79190612523565b60405180910390f35b6000600754905090565b60007f80ac58cd000000000000000000000000000000000000000000000000000000007bffffffffffffffffffffffffffffffffffffffffffffffffffffffff1916827bffffffffffffffffffffffffffffffffffffffffffffffffffffffff1916148061058557507f5b5e139f000000000000000000000000000000000000000000000000000000007bffffffffffffffffffffffffffffffffffffffffffffffffffffffff1916827bffffffffffffffffffffffffffffffffffffffffffffffffffffffff1916145b80610595575061059482610f47565b5b9050919050565b6060600080546105ab90612a08565b80601f01602080910402602001604051908101604052809291908181526020018280546105d790612a08565b80156106245780601f106105f957610100808354040283529160200191610624565b820191906000526020600020905b81548152906001019060200180831161060757829003601f168201915b5050505050905090565b600061063982610fb1565b610678576040517f08c379a000000000000000000000000000000000000000000000000000000000815260040161066f906126e0565b60405180910390fd5b6004600083815260200190815260200160002060009054906101000a900473ffffffffffffffffffffffffffffffffffffffff169050919050565b60006106be826109f5565b90508073ffffffffffffffffffffffffffffffffffffffff168373ffffffffffffffffffffffffffffffffffffffff16141561072f576040517f08c379a000000000000000000000000000000000000000000000000000000000815260040161072690612720565b60405180910390fd5b8073ffffffffffffffffffffffffffffffffffffffff1661074e61101d565b73ffffffffffffffffffffffffffffffffffffffff16148061077d575061077c8161077761101d565b610eb3565b5b6107bc576040517f08c379a00000000000000000000000000000000000000000000000000000000081526004016107b390612620565b60405180910390fd5b6107c68383611025565b505050565b60008060096000848152602001908152602001600020604051806060016040529081600082015481526020016001820160009054906101000a900460ff16151515158152602001600282015481525050905061012c6008548260400151610832919061291e565b111561086a576040517ff255fe8b00000000000000000000000000000000000000000000000000000000815260040160405180910390fd5b42600960008581526020019081526020016000206002018190555060016009600085815260200190815260200160002060010160006101000a81548160ff02191690831515021790555061012c426108c29190612897565b6008819055506001915050919050565b60096020528060005260406000206000915090508060000154908060010160009054906101000a900460ff16908060020154905083565b60075481565b61092061091a61101d565b826110de565b61095f576040517f08c379a000000000000000000000000000000000000000000000000000000000815260040161095690612740565b60405180910390fd5b61096a8383836111bc565b505050565b61098a83838360405180602001604052806000815250610c17565b505050565b600061012c905090565b6109a1611c96565b60096000838152602001908152602001600020604051806060016040529081600082015481526020016001820160009054906101000a900460ff161515151581526020016002820154815250509050919050565b6000806002600084815260200190815260200160002060009054906101000a900473ffffffffffffffffffffffffffffffffffffffff169050600073ffffffffffffffffffffffffffffffffffffffff168173ffffffffffffffffffffffffffffffffffffffff161415610a9e576040517f08c379a0000000000000000000000000000000000000000000000000000000008152600401610a9590612660565b60405180910390fd5b80915050919050565b6000600854905090565b60085481565b60008073ffffffffffffffffffffffffffffffffffffffff168273ffffffffffffffffffffffffffffffffffffffff161415610b28576040517f08c379a0000000000000000000000000000000000000000000000000000000008152600401610b1f90612640565b60405180910390fd5b600360008373ffffffffffffffffffffffffffffffffffffffff1673ffffffffffffffffffffffffffffffffffffffff168152602001908152602001600020549050919050565b606060018054610b7e90612a08565b80601f0160208091040260200160405190810160405280929190818152602001828054610baa90612a08565b8015610bf75780601f10610bcc57610100808354040283529160200191610bf7565b820191906000526020600020905b815481529060010190602001808311610bda57829003601f168201915b5050505050905090565b610c13610c0c61101d565b8383611423565b5050565b610c28610c2261101d565b836110de565b610c67576040517f08c379a0000000000000000000000000000000000000000000000000000000008152600401610c5e90612740565b60405180910390fd5b610c7384848484611590565b50505050565b6060610c8482610fb1565b610cc3576040517f08c379a0000000000000000000000000000000000000000000000000000000008152600401610cba906126c0565b60405180910390fd5b6000600660008481526020019081526020016000208054610ce390612a08565b80601f0160208091040260200160405190810160405280929190818152602001828054610d0f90612a08565b8015610d5c5780601f10610d3157610100808354040283529160200191610d5c565b820191906000526020600020905b815481529060010190602001808311610d3f57829003601f168201915b505050505090506000610d6d6115ec565b9050600081511415610d83578192505050610dc6565b600082511115610db8578082604051602001610da0929190612498565b60405160208183030381529060405292505050610dc6565b610dc184611603565b925050505b919050565b600060076000815480929190610de090612a6b565b9190505550610df1336007546116aa565b610dfd600754836116c8565b60405180606001604052806007548152602001600015158152602001428152506009600060075481526020019081526020016000206000820151816000015560208201518160010160006101000a81548160ff021916908315150217905550604082015181600201559050506007547fd4c3f7782ecae0d1a12013592109b1bf02689d7f4e8ab653c75a61aea745e3be42604051610e9b919061277b565b60405180910390a26007549050919050565b61012c81565b6000600560008473ffffffffffffffffffffffffffffffffffffffff1673ffffffffffffffffffffffffffffffffffffffff16815260200190815260200160002060008373ffffffffffffffffffffffffffffffffffffffff1673ffffffffffffffffffffffffffffffffffffffff16815260200190815260200160002060009054906101000a900460ff16905092915050565b60007f01ffc9a7000000000000000000000000000000000000000000000000000000007bffffffffffffffffffffffffffffffffffffffffffffffffffffffff1916827bffffffffffffffffffffffffffffffffffffffffffffffffffffffff1916149050919050565b60008073ffffffffffffffffffffffffffffffffffffffff166002600084815260200190815260200160002060009054906101000a900473ffffffffffffffffffffffffffffffffffffffff1673ffffffffffffffffffffffffffffffffffffffff1614159050919050565b600033905090565b816004600083815260200190815260200160002060006101000a81548173ffffffffffffffffffffffffffffffffffffffff021916908373ffffffffffffffffffffffffffffffffffffffff160217905550808273ffffffffffffffffffffffffffffffffffffffff16611098836109f5565b73ffffffffffffffffffffffffffffffffffffffff167f8c5be1e5ebec7d5bd14f71427d1e84f3dd0314c0f7b2291e5b200ac8c7c3b92560405160405180910390a45050565b60006110e982610fb1565b611128576040517f08c379a000000000000000000000000000000000000000000000000000000000815260040161111f90612600565b60405180910390fd5b6000611133836109f5565b90508073ffffffffffffffffffffffffffffffffffffffff168473ffffffffffffffffffffffffffffffffffffffff16148061117557506111748185610eb3565b5b806111b357508373ffffffffffffffffffffffffffffffffffffffff1661119b8461062e565b73ffffffffffffffffffffffffffffffffffffffff16145b91505092915050565b8273ffffffffffffffffffffffffffffffffffffffff166111dc826109f5565b73ffffffffffffffffffffffffffffffffffffffff1614611232576040517f08c379a000000000000000000000000000000000000000000000000000000000815260040161122990612580565b60405180910390fd5b600073ffffffffffffffffffffffffffffffffffffffff168273ffffffffffffffffffffffffffffffffffffffff1614156112a2576040517f08c379a0000000000000000000000000000000000000000000000000000000008152600401611299906125c0565b60405180910390fd5b6112ad83838361173c565b6112b8600082611025565b6001600360008573ffffffffffffffffffffffffffffffffffffffff1673ffffffffffffffffffffffffffffffffffffffff1681526020019081526020016000206000828254611308919061291e565b925050819055506001600360008473ffffffffffffffffffffffffffffffffffffffff1673ffffffffffffffffffffffffffffffffffffffff168152602001908152602001600020600082825461135f9190612897565b92505081905550816002600083815260200190815260200160002060006101000a81548173ffffffffffffffffffffffffffffffffffffffff021916908373ffffffffffffffffffffffffffffffffffffffff160217905550808273ffffffffffffffffffffffffffffffffffffffff168473ffffffffffffffffffffffffffffffffffffffff167fddf252ad1be2c89b69c2b068fc378daa952ba7f163c4a11628f55a4df523b3ef60405160405180910390a461141e838383611741565b505050565b8173ffffffffffffffffffffffffffffffffffffffff168373ffffffffffffffffffffffffffffffffffffffff161415611492576040517f08c379a0000000000000000000000000000000000000000000000000000000008152600401611489906125e0565b60405180910390fd5b80600560008573ffffffffffffffffffffffffffffffffffffffff1673ffffffffffffffffffffffffffffffffffffffff16815260200190815260200160002060008473ffffffffffffffffffffffffffffffffffffffff1673ffffffffffffffffffffffffffffffffffffffff16815260200190815260200160002060006101000a81548160ff0219169083151502179055508173ffffffffffffffffffffffffffffffffffffffff168373ffffffffffffffffffffffffffffffffffffffff167f17307eab39ab6107e8899845ad3d59bd9653f200f220920489ca2b5937696c31836040516115839190612523565b60405180910390a3505050565b61159b8484846111bc565b6115a784848484611746565b6115e6576040517f08c379a00000000000000000000000000000000000000000000000000000000081526004016115dd90612560565b60405180910390fd5b50505050565b606060405180602001604052806000815250905090565b606061160e82610fb1565b61164d576040517f08c379a000000000000000000000000000000000000000000000000000000000815260040161164490612700565b60405180910390fd5b60006116576115ec565b9050600081511161167757604051806020016040528060008152506116a2565b80611681846118dd565b604051602001611692929190612498565b6040516020818303038152906040525b915050919050565b6116c4828260405180602001604052806000815250611a3e565b5050565b6116d182610fb1565b611710576040517f08c379a000000000000000000000000000000000000000000000000000000000815260040161170790612680565b60405180910390fd5b80600660008481526020019081526020016000209080519060200190611737929190611cb9565b505050565b505050565b505050565b60006117678473ffffffffffffffffffffffffffffffffffffffff16611a99565b156118d0578373ffffffffffffffffffffffffffffffffffffffff1663150b7a0261179061101d565b8786866040518563ffffffff1660e01b81526004016117b294939291906124d7565b602060405180830381600087803b1580156117cc57600080fd5b505af19250505080156117fd57506040513d601f19601f820116820180604052508101906117fa9190612095565b60015b611880573d806000811461182d576040519150601f19603f3d011682016040523d82523d6000602084013e611832565b606091505b50600081511415611878576040517f08c379a000000000000000000000000000000000000000000000000000000000815260040161186f90612560565b60405180910390fd5b805181602001fd5b63150b7a0260e01b7bffffffffffffffffffffffffffffffffffffffffffffffffffffffff1916817bffffffffffffffffffffffffffffffffffffffffffffffffffffffff1916149150506118d5565b600190505b949350505050565b60606000821415611925576040518060400160405280600181526020017f30000000000000000000000000000000000000000000000000000000000000008152509050611a39565b600082905060005b6000821461195757808061194090612a6b565b915050600a8261195091906128ed565b915061192d565b60008167ffffffffffffffff81111561197357611972612ba1565b5b6040519080825280601f01601f1916602001820160405280156119a55781602001600182028036833780820191505090505b5090505b60008514611a32576001826119be919061291e565b9150600a856119cd9190612ab4565b60306119d99190612897565b60f81b8183815181106119ef576119ee612b72565b5b60200101907effffffffffffffffffffffffffffffffffffffffffffffffffffffffffffff1916908160001a905350600a85611a2b91906128ed565b94506119a9565b8093505050505b919050565b611a488383611abc565b611a556000848484611746565b611a94576040517f08c379a0000000000000000000000000000000000000000000000000000000008152600401611a8b90612560565b60405180910390fd5b505050565b6000808273ffffffffffffffffffffffffffffffffffffffff163b119050919050565b600073ffffffffffffffffffffffffffffffffffffffff168273ffffffffffffffffffffffffffffffffffffffff161415611b2c576040517f08c379a0000000000000000000000000000000000000000000000000000000008152600401611b23906126a0565b60405180910390fd5b611b3581610fb1565b15611b75576040517f08c379a0000000000000000000000000000000000000000000000000000000008152600401611b6c906125a0565b60405180910390fd5b611b816000838361173c565b6001600360008473ffffffffffffffffffffffffffffffffffffffff1673ffffffffffffffffffffffffffffffffffffffff1681526020019081526020016000206000828254611bd19190612897565b92505081905550816002600083815260200190815260200160002060006101000a81548173ffffffffffffffffffffffffffffffffffffffff021916908373ffffffffffffffffffffffffffffffffffffffff160217905550808273ffffffffffffffffffffffffffffffffffffffff16600073ffffffffffffffffffffffffffffffffffffffff167fddf252ad1be2c89b69c2b068fc378daa952ba7f163c4a11628f55a4df523b3ef60405160405180910390a4611c9260008383611741565b5050565b604051806060016040528060008152602001600015158152602001600081525090565b828054611cc590612a08565b90600052602060002090601f016020900481019282611ce75760008555611d2e565b82601f10611d0057805160ff1916838001178555611d2e565b82800160010185558215611d2e579182015b82811115611d2d578251825591602001919060010190611d12565b5b509050611d3b9190611d3f565b5090565b5b80821115611d58576000816000905550600101611d40565b5090565b6000611d6f611d6a846127f2565b6127cd565b905082815260208101848484011115611d8b57611d8a612bd5565b5b611d968482856129c6565b509392505050565b6000611db1611dac84612823565b6127cd565b905082815260208101848484011115611dcd57611dcc612bd5565b5b611dd88482856129c6565b509392505050565b600081359050611def81613073565b92915050565b600081359050611e048161308a565b92915050565b600081359050611e19816130a1565b92915050565b600081519050611e2e816130a1565b92915050565b600082601f830112611e4957611e48612bd0565b5b8135611e59848260208601611d5c565b91505092915050565b600082601f830112611e7757611e76612bd0565b5b8135611e87848260208601611d9e565b91505092915050565b600081359050611e9f816130b8565b92915050565b600060208284031215611ebb57611eba612bdf565b5b6000611ec984828501611de0565b91505092915050565b60008060408385031215611ee957611ee8612bdf565b5b6000611ef785828601611de0565b9250506020611f0885828601611de0565b9150509250929050565b600080600060608486031215611f2b57611f2a612bdf565b5b6000611f3986828701611de0565b9350506020611f4a86828701611de0565b9250506040611f5b86828701611e90565b9150509250925092565b60008060008060808587031215611f7f57611f7e612bdf565b5b6000611f8d87828801611de0565b9450506020611f9e87828801611de0565b9350506040611faf87828801611e90565b925050606085013567ffffffffffffffff811115611fd057611fcf612bda565b5b611fdc87828801611e34565b91505092959194509250565b60008060408385031215611fff57611ffe612bdf565b5b600061200d85828601611de0565b925050602061201e85828601611df5565b9150509250929050565b6000806040838503121561203f5761203e612bdf565b5b600061204d85828601611de0565b925050602061205e85828601611e90565b9150509250929050565b60006020828403121561207e5761207d612bdf565b5b600061208c84828501611e0a565b91505092915050565b6000602082840312156120ab576120aa612bdf565b5b60006120b984828501611e1f565b91505092915050565b6000602082840312156120d8576120d7612bdf565b5b600082013567ffffffffffffffff8111156120f6576120f5612bda565b5b61210284828501611e62565b91505092915050565b60006020828403121561212157612120612bdf565b5b600061212f84828501611e90565b91505092915050565b61214181612952565b82525050565b61215081612964565b82525050565b61215f81612964565b82525050565b600061217082612854565b61217a818561286a565b935061218a8185602086016129d5565b61219381612be4565b840191505092915050565b60006121a98261285f565b6121b3818561287b565b93506121c38185602086016129d5565b6121cc81612be4565b840191505092915050565b60006121e28261285f565b6121ec818561288c565b93506121fc8185602086016129d5565b80840191505092915050565b600061221560328361287b565b915061222082612bf5565b604082019050919050565b600061223860258361287b565b915061224382612c44565b604082019050919050565b600061225b601c8361287b565b915061226682612c93565b602082019050919050565b600061227e60248361287b565b915061228982612cbc565b604082019050919050565b60006122a160198361287b565b91506122ac82612d0b565b602082019050919050565b60006122c4602c8361287b565b91506122cf82612d34565b604082019050919050565b60006122e760388361287b565b91506122f282612d83565b604082019050919050565b600061230a602a8361287b565b915061231582612dd2565b604082019050919050565b600061232d60298361287b565b915061233882612e21565b604082019050919050565b6000612350602e8361287b565b915061235b82612e70565b604082019050919050565b600061237360208361287b565b915061237e82612ebf565b602082019050919050565b600061239660318361287b565b91506123a182612ee8565b604082019050919050565b60006123b9602c8361287b565b91506123c482612f37565b604082019050919050565b60006123dc602f8361287b565b91506123e782612f86565b604082019050919050565b60006123ff60218361287b565b915061240a82612fd5565b604082019050919050565b600061242260318361287b565b915061242d82613024565b604082019050919050565b60608201600082015161244e600085018261247a565b5060208201516124616020850182612147565b506040820151612474604085018261247a565b50505050565b612483816129bc565b82525050565b612492816129bc565b82525050565b60006124a482856121d7565b91506124b082846121d7565b91508190509392505050565b60006020820190506124d16000830184612138565b92915050565b60006080820190506124ec6000830187612138565b6124f96020830186612138565b6125066040830185612489565b81810360608301526125188184612165565b905095945050505050565b60006020820190506125386000830184612156565b92915050565b60006020820190508181036000830152612558818461219e565b905092915050565b6000602082019050818103600083015261257981612208565b9050919050565b600060208201905081810360008301526125998161222b565b9050919050565b600060208201905081810360008301526125b98161224e565b9050919050565b600060208201905081810360008301526125d981612271565b9050919050565b600060208201905081810360008301526125f981612294565b9050919050565b60006020820190508181036000830152612619816122b7565b9050919050565b60006020820190508181036000830152612639816122da565b9050919050565b60006020820190508181036000830152612659816122fd565b9050919050565b6000602082019050818103600083015261267981612320565b9050919050565b6000602082019050818103600083015261269981612343565b9050919050565b600060208201905081810360008301526126b981612366565b9050919050565b600060208201905081810360008301526126d981612389565b9050919050565b600060208201905081810360008301526126f9816123ac565b9050919050565b60006020820190508181036000830152612719816123cf565b9050919050565b60006020820190508181036000830152612739816123f2565b9050919050565b6000602082019050818103600083015261275981612415565b9050919050565b60006060820190506127756000830184612438565b92915050565b60006020820190506127906000830184612489565b92915050565b60006060820190506127ab6000830186612489565b6127b86020830185612156565b6127c56040830184612489565b949350505050565b60006127d76127e8565b90506127e38282612a3a565b919050565b6000604051905090565b600067ffffffffffffffff82111561280d5761280c612ba1565b5b61281682612be4565b9050602081019050919050565b600067ffffffffffffffff82111561283e5761283d612ba1565b5b61284782612be4565b9050602081019050919050565b600081519050919050565b600081519050919050565b600082825260208201905092915050565b600082825260208201905092915050565b600081905092915050565b60006128a2826129bc565b91506128ad836129bc565b9250827fffffffffffffffffffffffffffffffffffffffffffffffffffffffffffffffff038211156128e2576128e1612ae5565b5b828201905092915050565b60006128f8826129bc565b9150612903836129bc565b92508261291357612912612b14565b5b828204905092915050565b6000612929826129bc565b9150612934836129bc565b92508282101561294757612946612ae5565b5b828203905092915050565b600061295d8261299c565b9050919050565b60008115159050919050565b60007fffffffff0000000000000000000000000000000000000000000000000000000082169050919050565b600073ffffffffffffffffffffffffffffffffffffffff82169050919050565b6000819050919050565b82818337600083830152505050565b60005b838110156129f35780820151818401526020810190506129d8565b83811115612a02576000848401525b50505050565b60006002820490506001821680612a2057607f821691505b60208210811415612a3457612a33612b43565b5b50919050565b612a4382612be4565b810181811067ffffffffffffffff82111715612a6257612a61612ba1565b5b80604052505050565b6000612a76826129bc565b91507fffffffffffffffffffffffffffffffffffffffffffffffffffffffffffffffff821415612aa957612aa8612ae5565b5b600182019050919050565b6000612abf826129bc565b9150612aca836129bc565b925082612ada57612ad9612b14565b5b828206905092915050565b7f4e487b7100000000000000000000000000000000000000000000000000000000600052601160045260246000fd5b7f4e487b7100000000000000000000000000000000000000000000000000000000600052601260045260246000fd5b7f4e487b7100000000000000000000000000000000000000000000000000000000600052602260045260246000fd5b7f4e487b7100000000000000000000000000000000000000000000000000000000600052603260045260246000fd5b7f4e487b7100000000000000000000000000000000000000000000000000000000600052604160045260246000fd5b600080fd5b600080fd5b600080fd5b600080fd5b6000601f19601f8301169050919050565b7f4552433732313a207472616e7366657220746f206e6f6e20455243373231526560008201527f63656976657220696d706c656d656e7465720000000000000000000000000000602082015250565b7f4552433732313a207472616e736665722066726f6d20696e636f72726563742060008201527f6f776e6572000000000000000000000000000000000000000000000000000000602082015250565b7f4552433732313a20746f6b656e20616c7265616479206d696e74656400000000600082015250565b7f4552433732313a207472616e7366657220746f20746865207a65726f2061646460008201527f7265737300000000000000000000000000000000000000000000000000000000602082015250565b7f4552433732313a20617070726f766520746f2063616c6c657200000000000000600082015250565b7f4552433732313a206f70657261746f7220717565727920666f72206e6f6e657860008201527f697374656e7420746f6b656e0000000000000000000000000000000000000000602082015250565b7f4552433732313a20617070726f76652063616c6c6572206973206e6f74206f7760008201527f6e6572206e6f7220617070726f76656420666f7220616c6c0000000000000000602082015250565b7f4552433732313a2062616c616e636520717565727920666f7220746865207a6560008201527f726f206164647265737300000000000000000000000000000000000000000000602082015250565b7f4552433732313a206f776e657220717565727920666f72206e6f6e657869737460008201527f656e7420746f6b656e0000000000000000000000000000000000000000000000602082015250565b7f45524337323155524953746f726167653a2055524920736574206f66206e6f6e60008201527f6578697374656e7420746f6b656e000000000000000000000000000000000000602082015250565b7f4552433732313a206d696e7420746f20746865207a65726f2061646472657373600082015250565b7f45524337323155524953746f726167653a2055524920717565727920666f722060008201527f6e6f6e6578697374656e7420746f6b656e000000000000000000000000000000602082015250565b7f4552433732313a20617070726f76656420717565727920666f72206e6f6e657860008201527f697374656e7420746f6b656e0000000000000000000000000000000000000000602082015250565b7f4552433732314d657461646174613a2055524920717565727920666f72206e6f60008201527f6e6578697374656e7420746f6b656e0000000000000000000000000000000000602082015250565b7f4552433732313a20617070726f76616c20746f2063757272656e74206f776e6560008201527f7200000000000000000000000000000000000000000000000000000000000000602082015250565b7f4552433732313a207472616e736665722063616c6c6572206973206e6f74206f60008201527f776e6572206e6f7220617070726f766564000000000000000000000000000000602082015250565b61307c81612952565b811461308757600080fd5b50565b61309381612964565b811461309e57600080fd5b50565b6130aa81612970565b81146130b557600080fd5b50565b6130c1816129bc565b81146130cc57600080fd5b5056fea2646970667358221220b4ada3e1b1376316c656028888348f57d48cfa4d4129b1bea59479d26b090de664736f6c63430008070033",
  "linkReferences": {},
  "deployedLinkReferences": {}
}